:020000040800F2
:1000000000000220851600081D1600081F160008B3
:10001000211600082316000825160008000000001D
:10002000000000000000000000000000271600088B
:1000300029160008000000002B1600082D160008E5
:10004000D5160008D5160008D5160008D5160008E4
:10005000D5160008D5160008D5160008D5160008D4
:10006000D5160008D5160008D5160008D5160008C4
:10007000D5160008D5160008D5160008D5160008B4
:10008000D5160008D5160008D5160008D5160008A4
:10009000D5160008D5160008D5160008D516000894
:1000A000D5160008D5160008D5160008D516000884
:1000B000D5160008D5160008D5160008D516000874
:1000C000D5160008D5160008D5160008D516000864
:1000D000D5160008D5160008D5160008D516000854
:1000E000D5160008D5160008D5160008D516000844
:1000F000D5160008D5160008D5160008D516000834
:10010000D5160008D5160008D5160008D516000823
:10011000D5160008D5160008D5160008D516000813
:10012000D5160008D5160008D5160008D516000803
:10013000D5160008D5160008D5160008D5160008F3
:10014000D5160008D5160008D5160008D5160008E3
:10015000D5160008D5160008D5160008D5160008D3
:10016000D5160008D5160008D5160008D5160008C3
:10017000D5160008D5160008D516000800000000A6
:08018000D5160008D516000891
:1001900010B5054C237833B9044B13B10448AFF3C1
:1001A00000800123237010BD7000002000000000BB
:1001B0007025000808B5034B1BB103490348AFF392
:1001C000008008BD000000007400002070250008B9
:1001D00053B94AB9002908BF00281CBF4FF0FF31AE
:1001E0004FF0FF3000F072B9ADF1080C6DE904CEAC
:1001F00000F006F8DDF804E0DDE9022304B0704702
:100200002DE9F047089E04468846002B4BD18A42D0
:10021000154667D9B2FA82F24AB1C2F1200701FA53
:1002200002F320FA07F7954047EA030894404FEAA3
:10023000154E230CB8FBFEF71FFA85FC0EFB178842
:1002400043EA084307FB0CF1994209D9EB1807F17F
:10025000FF3080F01B81994240F21881023F2B440D
:100260005B1AA4B2B3FBFEF00EFB103344EA034466
:1002700000FB0CFCA44509D92C1900F1FF3380F0D8
:100280000781A44540F2048102382C4440EA07402B
:10029000A4EB0C0400271EB1D4400023C6E90043A0
:1002A0003946BDE8F0878B4209D9002E00F0EB807B
:1002B0000027C6E9000138463946BDE8F087B3FAA1
:1002C00083F7002F47D18B4202D3824200F2FA809B
:1002D000841A61EB030301209846002EE0D0C6E9A2
:1002E0000048DDE702B9FFDEB2FA82F2002A40F0F0
:1002F0008F80491B4FEA154E1FFA85F80127B1FB85
:10030000FEFC230C0EFB1C1143EA014308FB0CF11D
:10031000994207D9EB180CF1FF3002D2994200F252
:10032000CD808446591AA3B2B1FBFEF00EFB101427
:1003300043EA044408FB00F8A04507D92C1900F152
:10034000FF3302D2A04500F2B6801846A4EB0804A1
:1003500040EA0C409FE7C7F1200CBB4022FA0CFE9C
:100360004EEA030E01FA07F420FA0CF521FA0CF319
:100370004FEA1E482543B3FBF8F92C0C08FB193350
:100380001FFA8EFA44EA034309FB0AF49C4202FA7C
:1003900007F200FA07F10BD91EEB030309F1FF3056
:1003A00080F087809C4240F28480A9F10209734466
:1003B0001B1BADB2B3FBF8F008FB103345EA034456
:1003C00000FB0AFAA24508D91EEB040400F1FF3332
:1003D0006BD2A24569D90238744440EA0940A0FBB7
:1003E0000289A4EB0A044C45C2464B4654D351D073
:1003F000002E69D0B1EB0A0564EB030404FA0CFC8F
:10040000FD40FC404CEA0505C6E90054002747E7DB
:10041000C2F1200320FA03F7954001FA02F021FA15
:1004200003F34FEA154E3843010CB3FBFEF71FFAF6
:1004300085F80EFB173341EA034107FB08F38B42B3
:1004400004FA02F407D9691807F1FF3C2FD28B4256
:100450002DD9023F2944CB1A81B2B3FBFEF00EFB2B
:10046000103341EA034100FB08F38B4207D96918B6
:1004700000F1FF3C17D28B4215D902382944C91A22
:1004800040EA07473BE73746304609E70746E7E6D5
:100490001846FBE64145ABD2B8EB020A69EB0E0207
:1004A00001381346A4E76046E9E7184695E7674632
:1004B000D1E781467CE702382C4447E7ACF1020CD7
:1004C0002B442FE7384608E73746E9E6704700BF78
:1004D00001F0FF01102A2BDB10F0070F08D010F8F5
:1004E000013B013A8B422DD010F0070F42B3F6D1F9
:1004F000F0B441EA012141EA014122F007047FF012
:1005000000070023F0E80256083C85EA010586EA68
:10051000010685FA47F5A3FA87F586FA47F6A5FAA4
:1005200087F68EB9EED1F0BC01F0FF0102F00702B0
:1005300032B110F8013B013A83EA010313B1F8D15B
:100540000020704701387047002D06BF354603383C
:10055000073815F0010F07D1013015F4807F02BF75
:10056000013015F4C03F0130F0BC0138704700BFC6
:1005700010B504460E4B18784FF47A73B3FBF0F3C2
:100580000C4A1068B0FBF3F000F0BAF868B90F2C11
:1005900001D901200AE0002221464FF0FF3000F08F
:1005A00069F8034B5C60002000E0012010BD00BF33
:1005B000000000200800002008B50B4B1A6842F428
:1005C00000721A601A6842F480621A601A6842F473
:1005D00080721A60032000F02FF80020FFF7C8FF98
:1005E00000F0D2FF002008BD003C0240034A116821
:1005F000034B1B780B441360704700BF980000202A
:1006000000000020014B1868704700BF98000020D0
:1006100038B50446FFF7F6FF0546B4F1FF3F02D0B8
:10062000044B1B781C44FFF7EDFF401BA042FAD39C
:1006300038BD00BF0000002010B50446C31E042BC7
:100640000FD80A4AD36823F4E0631B041B0C24026E
:1006500004F4E064234343F0BF6343F40033D36006
:1006600010BDA221024800F08DFFEAE700ED00E096
:10067000A025000870B505460C4616460F2A25D859
:100680000F2C28D81B4BDB68C3F30223C3F10702EE
:10069000042A28BF0422191D062921D9033B4FF043
:1006A000FF3101FA02F224EA02049C4001FA03F34A
:1006B00026EA03063443002D14DB2401E4B205F1DD
:1006C000604505F5614585F8004370BDBA210A48CB
:1006D00000F058FFD4E7BB21074800F053FFD1E7F3
:1006E0000023DCE705F00F052401E4B2034B5C5561
:1006F000EBE700BF00ED00E0A025000814ED00E0EE
:100700000138B0F1807F0AD2064B5860064AF021CA
:1007100082F823100020986007221A607047012099
:10072000704700BF10E000E000ED00E010B50446A7
:10073000042800D038B9042C0BD0094A136823F0E0
:100740000403136010BD40F2D911064800F01AFFEF
:10075000F1E7034A136843F004031360F2E700BFB4
:1007600010E000E0A0250008704708B5FFF7FCFF87
:1007700008BD00002DE9F04782B080460E46B64B1A
:10078000984223D003F5806398421FD003F580631D
:1007900098421BD003F58063984217D003F580631D
:1007A000984213D003F5806398420FD003F580631D
:1007B00098420BD003F58063984207D003F580631D
:1007C000984203D0C321A54800F0DCFE33689AB2FA
:1007D00012B11B0C1B041BB1C421A04800F0D2FEB7
:1007E0007368012B1ED9112B1CD0022B1AD0122B8F
:1007F00018D09B4A934215D002F58012934211D033
:1008000002F5801293420DD0A2F5F812934209D05E
:1008100002F58012934205D002F58012934201D076
:10082000032B04D1B368022B06D8002445E0C52170
:100830008A4800F0A7FEF5E7C621884800F0A2FE2E
:10084000F3E7EA21854800F09DFE96E0072300E0EB
:1008500000238B4003430232824941F82230824B0D
:100860001A68FB4303EA0201706810F4803F01D06C
:1008700047EA02017C4A1160526803EA020170688B
:1008800010F4003F01D047EA0201774A51609268B4
:1008900003EA0201706810F4801F01D047EA0201E8
:1008A000714A9160D2681340716811F4001F01D041
:1008B00047EA02036C4AD36001340F2C00F2C9806E
:1008C0000125A54037682F40BD42F5D17368022B42
:1008D00001D0122B31D13369FBB1092B1DD0012B73
:1008E0001BD0022B19D0032B17D0042B15D0052BAE
:1008F00013D0062B11D0072B0FD0082B0DD00A2BAD
:100900000BD00B2B09D00C2B07D00D2B05D00F2BA8
:1009100003D0D721514800F035FEE208083258F8DC
:10092000220004F0070399000F238B4020EA030004
:1009300033698B40034348F82230D8F800204FEA4F
:10094000440A4FF0030909FA0AF96FEA090909EAAA
:100950000202736803F0030303FA0AF31343C8F8AF
:10096000003073685A1E012A03D9112B01D0122BB3
:1009700018D1F368032B3FF664AFD8F8082009EAD2
:100980000202F36803FA0AF31343C8F80830D8F8F0
:10099000042022EA05027368C3F30015A54015433D
:1009A000C8F80450D8F80C3009EA0309B36803FA10
:1009B0000AF343EA0903C8F80C30736813F0805F48
:1009C0003FF47AAF00230193284B5A6C42F48042E3
:1009D0005A645B6C03F480430193019BA208911C51
:1009E000204B53F8210004F0030399000F238B40A0
:1009F00020EA0300184B98453FF42AAF03F58063C3
:100A000098451AD003F58063984518D003F58063A4
:100A1000984516D003F58063984514D003F580639C
:100A2000984512D003F58063984510D003F5806394
:100A300098453FF40BAF08230BE7012309E7022396
:100A400007E7032305E7042303E7052301E706235C
:100A5000FFE602B0BDE8F08700000240DC25000898
:100A60000000111000380140003C014000380240F5
:100A700070B5064615460C4629B1012D09D875B941
:100A80002404B46170BD40F2AF11064800F07AFD55
:100A9000F3E74FF4D871034800F074FDEFE7B46159
:100AA000F0E700BFDC25000838B505460C4621B943
:100AB0004FF4E371034800F065FD6B695C406C61C5
:100AC00038BD00BFDC250008002800F03C8270B56E
:100AD00082B0044603680F2B39D8236813F0010F46
:100AE0004DD063682BB1B3F5803F02D0B3F5A02F92
:100AF00032D1A54B9B6803F00C03042B36D0A24BDC
:100B00009B6803F00C03082B2BD06368B3F5803F80
:100B10005FD0B3F5A02F62D09B4B1A6822F48032CD
:100B20001A601A6822F480221A606368002B60D071
:100B3000FFF768FD0546944B1B6813F4003F1ED178
:100B4000FFF760FD401B6428F5D9032000E2F8217F
:100B50008E4800F017FDC0E7FD218C4800F012FD23
:100B6000C7E7894B5B6813F4800FCED0864B1B68B8
:100B700013F4003F03D06368002B00F0E681236884
:100B800013F0020F67D0E368012B41D823691F2BB4
:100B900044D87D4B9B6813F00C0F4AD07A4B9B686E
:100BA00003F00C03082B3FD0E368002B77D0784B81
:100BB00001221A60FFF726FD0546734B1B6813F0F0
:100BC000020F63D1FFF71EFD401B0228F5D9032059
:100BD000BEE16D4A136843F480331360A5E76A4BA6
:100BE0001A6842F480221A601A6842F480321A604D
:100BF0009BE7FFF707FD0546634B1B6813F4003FB7
:100C0000BDD0FFF7FFFC401B6428F5D903209FE10E
:100C100040F22F115D4800F0B5FCB7E74FF4987132
:100C20005A4800F0AFFCB4E7574B5B6813F4800FF1
:100C3000BAD1554B1B6813F0020F04D0E368012BA7
:100C400001D0012084E1504A136823F0F8032169A0
:100C500043EAC1031360236813F0080F49D06369A6
:100C6000012B2ED8636993B34A4B01221A60FFF718
:100C7000C9FC0546444B5B6F13F0020F39D1FFF7F7
:100C8000C1FC401B0228F5D9032061E13E4A1368EC
:100C900023F0F803216943EAC1031360DBE73C4B0F
:100CA00000221A60FFF7AEFC0546374B1B6813F0B5
:100CB000020FD0D0FFF7A6FC401B0228F5D9032075
:100CC00046E14FF4B871314800F05CFCCAE7314BA3
:100CD00000221A60FFF796FC05462B4B5B6F13F062
:100CE000020F06D0FFF78EFC401B0228F5D9032027
:100CF0002EE1236813F0040F00F08780A368012B16
:100D000001D9052B38D1204B1B6C13F0805F39D1F2
:100D1000002301931C4B1A6C42F080521A641B6C26
:100D200003F080530193019B01251B4B1B6813F4B7
:100D3000807F33D0A368012B44D0052B48D0124BC1
:100D40001A6F22F001021A671A6F22F004021A6762
:100D5000A368002B46D0FFF755FC06460A4B1B6FD5
:100D600013F0020F4FD1FFF74DFC801B41F2883387
:100D70009842F3D90320EBE04FF4CE71034800F022
:100D800001FCC0E70025D0E7003802401826000823
:100D900000004742800E4742007000406E4A1368D0
:100DA00043F480731360FFF72DFC06466A4B1B6803
:100DB00013F4807FBED1FFF725FC801B0228F5D9F4
:100DC0000320C5E0654A136F43F001031367BFE7D3
:100DD000624B1A6F42F004021A671A6F42F0010266
:100DE0001A67B5E7FFF70EFC06465C4B1B6F13F066
:100DF000020F08D0FFF706FC801B41F288339842AF
:100E0000F3D90320A4E0002D3BD1A369022B3ED8E7
:100E1000A369002B00F09B80504A926802F00C02FC
:100E2000082A00F09780022B79D1E36913B1B3F55A
:100E3000800F32D1236A3F2B35D8636A323BB3F53A
:100E4000BF7F36D8A36A022B05D0042B03D0062B14
:100E500001D0082B33D1E36A023B0D2B35D8404B30
:100E600000221A60FFF7CEFB05463C4B1B6813F0CF
:100E7000007F30D0FFF7C6FB401B0228F5D90320C6
:100E800066E0364A136C23F080531364BDE740F2EA
:100E9000DF11344800F076FBBAE74FF4F4713148C3
:100EA00000F070FBC6E740F2E9112E4800F06AFB43
:100EB000C3E74FF4F5712B4800F064FBC2E740F242
:100EC000EB11284800F05EFBC5E74FF4F6712548AA
:100ED00000F058FBC3E7E369226A1343626A43EAFE
:100EE0008213A26A5208013A43EA0243E26A43EAE1
:100EF00002631A4A53601A4B01221A60FFF782FB01
:100F00000446164B1B6813F0007F06D1FFF77AFBEF
:100F1000001B0228F5D903201AE0002018E0104B2E
:100F200000221A60FFF76EFB04460C4B1B6813F09F
:100F3000007F06D0FFF766FB001B0228F5D90320CF
:100F400006E0002004E001207047012000E00020BE
:100F500002B070BD0120FBE7007000400038024085
:100F60006000474218260008324B9B6803F00C03D0
:100F7000042B5CD0082B01D02F4870472DE9F04B93
:100F80002C4B5A6802F03F025B6813F4800F2BD0A1
:100F9000284B5B68C3F388131E4600275C010025BD
:100FA000E41A65EB0705A90141EA9461A001001B61
:100FB00061EB0501CB0043EA5073C400A01943EB79
:100FC00007014B0243EAD05344022046194600234E
:100FD000FFF7FEF8174B5B68C3F3014301335B0077
:100FE000B0FBF3F0BDE8F08B124B5B68C3F38813E2
:100FF0001E4600275C010025E41A65EB0705A901E0
:1010000041EA9461A001001B61EB0501CB0043EABA
:101010005073C400A01943EB07018B0243EA9053BD
:101020008402204619460023FFF7D2F8D2E703488E
:10103000704700BF003802400024F40000127A001C
:10104000002800F0F98070B504460D460368013BA6
:101050000E2B11D8072D15D8794B1B6803F00F0301
:10106000AB4215D2EBB2764A1370136803F00F034C
:10107000AB420DD0012070BD4FF41471714800F0E7
:1010800081FAE7E740F251216E4800F07BFAE3E78E
:10109000236813F0020F29D013F0040F04D06A4A1A
:1010A000936843F4E0539360236813F0080F04D06F
:1010B000654A936843F460439360A3687BB1802BD7
:1010C0000DD0902B0BD0A02B09D0B02B07D0C02B6C
:1010D00005D0D02B03D0E02B01D0F02B33D15A4ACE
:1010E000936823F0F003A1680B439360236813F027
:1010F000010F42D06368032B2BD86368012B2ED0DD
:101100009A1E012A32D9504A126812F0020F00F0DA
:1011100095804D498A6822F0030213438B60FFF7E4
:1011200071FA0646484B9B6803F00C036268B3EB08
:10113000820F22D0FFF766FA801B41F28833984273
:10114000F0D9032097E74FF41D713E4800F01AFADA
:10115000C5E740F27B213B4800F014FACDE73A4A5C
:10116000126812F4003FD4D1012084E7364A126895
:1011700012F0007FCDD101207DE7314B1B6803F0D9
:101180000F03AB4209D9EAB22D4B1A701B6803F06A
:101190000F03AB4201D001206DE7236813F0040F69
:1011A00014D0E3685BB1B3F5805F08D0B3F5A05FFE
:1011B00005D0B3F5C05F02D0B3F5E05F30D1224A6D
:1011C000936823F4E053E1680B439360236813F0C2
:1011D000080F15D023695BB1B3F5805F08D0B3F574
:1011E000A05F05D0B3F5C05F02D0B3F5E05F1DD1BD
:1011F000154A936823F46043216943EAC10393606D
:10120000FFF7B2FE104B9B68C3F303130F4AD35C86
:10121000D8400F4B18600020FFF7AAF900202AE7FA
:1012200040F2B921074800F0ADF9C8E74FF430713A
:10123000044800F0A7F9DBE70120704701201AE716
:10124000003C0240182600080038024088250008AB
:1012500008000020014B1868704700BF08000020FC
:101260002DE9F04F8DB000240194774B1A6B42F0BA
:1012700010021A631A6B02F010020192019A029492
:101280001A6B42F004021A631A6B02F00402029213
:10129000029A03941A6B42F080021A631A6B02F0EE
:1012A00080020392039A04941A6B42F001021A63BB
:1012B0001A6B02F001020492049A05941A6B42F030
:1012C00002021A631A6B02F002020592059A069452
:1012D0001A6B42F008021A631B6B03F008030693B3
:1012E000069B224608215948FFF7C2FB01221146FE
:1012F0005748FFF7BDFB22464FF210015548FFF754
:10130000B7FB082507950126089609940A9407A9B2
:101310004E48FFF72FFA0796089609940A9407A9F2
:101320004B48FFF727FA07950225089509940A9478
:101330004FF00508CDF82C8007A94548FFF71AFAA9
:101340000796DFF81C91CDF820900994424F07A929
:101350003846FFF70FFA10230793089509940A946B
:101360004FF0060BCDF82CB007A93846FFF702FA6C
:10137000E0230793089509940A94CDF82C8007A9D7
:101380003846FFF7F7F94FF0040ACDF81CA008948F
:10139000099407A93148FFF7EDF94FF480630793EB
:1013A000089509940A94CDF82C8007A92B48FFF7DB
:1013B000E1F94FF210030793089609940A9407A9DC
:1013C0002448FFF7D7F94FF4A453079308950994DD
:1013D0000A94CDF82CB007A91D48FFF7CBF94FF4BC
:1013E000007307930894099407A93846FFF7C2F9D8
:1013F0004FF4E0530793089509940A940A230B933A
:1014000007A93846FFF7B6F92023079308940994F3
:1014100007A91048FFF7AEF94FF410730793122392
:10142000089309960A94CDF82CA007A90B48FFF75A
:10143000A1F90795CDF82090099407A90348FFF773
:1014400099F90DB0BDE8F08F00380240001002405D
:1014500000080240000C024000000240000402406C
:101460000000121000B587B00123029306A94FF4C3
:10147000704341F8143D0348FFF77CF907B05DF86D
:1014800004FB00BF000C0240FEE7000000B595B071
:10149000002301932A4A116C41F080511164126CAF
:1014A00002F080520192019A0293264A116841F497
:1014B00080411160126802F480420292029A022274
:1014C000089201210B9110210C910E920F93082389
:1014D000109332231193042312930723139308A824
:1014E000FFF7F2FA18BB0F230393022304930021A2
:1014F00005914FF4C05306934FF4A053079303A8EC
:10150000FFF79EFDB8B9FFF7A5FE0F4BA3FB003018
:101510008009FFF7F5F80420FFF708F900221146CB
:101520004FF0FF30FFF7A6F815B05DF804FBA021DF
:101530000648FFF7A9FFAE210448FFF7A5FF00BF4B
:101540000038024000700040D34D62105026000861
:1015500008B5FFF731F8FFF799FFFFF781FEFFF7B6
:1015600081FF064800F0E4F84FF480510448FFF78B
:101570009BFA4FF47A70FFF74BF8F5E76026000806
:10158000000C02407047000010B582B000240094A7
:10159000214B5A6C42F480425A645A6C02F48042E5
:1015A0000092009A01941A6C42F080521A641B6CEB
:1015B00003F080530193019B0720FFF73DF822467B
:1015C00021466FF00B00FFF755F8224621466FF0D9
:1015D0000A00FFF74FF8224621466FF00900FFF797
:1015E00049F8224621466FF00400FFF743F82246EF
:1015F00021466FF00300FFF73DF8224621466FF0C9
:101600000100FFF737F8224621464FF0FF30FFF781
:1016100031F802B010BD00BF003802407047FEE74D
:10162000FEE7FEE7FEE770477047704708B5FEF734
:10163000DDFFFFF79AF808BD0F49D1F8883043F471
:101640007003C1F888300D4B1A6842F001021A602D
:10165000002098601A6822F0847222F480321A60A6
:10166000074A5A601A6822F480221A60D8604FF044
:1016700000638B60704700BF00ED00E0003802405F
:1016800010300024DFF834D0002103E00C4B5B580D
:10169000435004310B480C4B42189A42F6D30B4A84
:1016A00002E0002342F8043B094B9A42F9D3FFF7CA
:1016B000C3FF00F011F8FFF74BFF70470000022056
:1016C000102700080000002070000020700000209B
:1016D000A0000020FEE7000070B50D4E0D4CA41BCD
:1016E000A4100025A54209D10B4E0C4C00F040FF80
:1016F000A41BA4100025A54205D170BD56F82530C5
:1017000098470135EEE756F8253098470135F2E75E
:101710000827000808270008082700080C270008E9
:1017200002440346934200D1704703F8011BF9E7D6
:101730000FB40A4B13B51C6824B1A36913B9204632
:1017400000F04EF805AB049AA1680193204600F022
:1017500055F902B0BDE8104004B070470C000020FD
:10176000002310B50446C0E90033836081814366DD
:10177000C281C0E904338361194608225C30FFF757
:10178000CFFF054B6362054BA362054BE362054B3C
:101790002462236310BD00BF551F0008771F000897
:1017A000AF1F0008D31F0008014900F085B800BF33
:1017B000AD22000870B54A1E682555430E4605F156
:1017C000740100F097F8044640B10021C0E900160A
:1017D0000C30A06005F16802FFF7A2FF204670BD43
:1017E000836910B5044633BBC0E912330365124B5D
:1017F000124A1B688262984204BF0123836100F091
:101800001FF86060204600F01BF8A060204600F042
:1018100017F80022E06004216068FFF7A1FF0122B1
:101820000921A068FFF79CFF02221221E068FFF760
:1018300097FF0123A36110BD68260008A9170008BF
:10184000F8B51B4B1E68B369074613B93046FFF75E
:10185000C7FF4836D6E90134013B03D5336833B1BD
:101860003668F7E7B4F90C506DB16834F4E7042139
:101870003846FFF79FFF30600028F1D10C233B6012
:1018800004462046F8BD0B4B6566C4E90055A560CB
:10189000C4E90335C4E905550822294604F15C0072
:1018A000FFF73EFFC4E90D55C4E91255E9E700BF53
:1018B000682600080100FFFF2DE9F84380468946AD
:1018C00000F14804002614B93046BDE8F883D4E995
:1018D0000175013F01D52468F5E7AB89012B07D9D4
:1018E000B5F90E30013303D029464046C8470643B8
:1018F0006835EEE770B5CD1C25F0030508350C2DD5
:1019000038BF0C25002D064601DBA94203D90C2364
:101910003360002070BD00F069FD214A1468214643
:1019200091B9204C23681BB9304600F003FB2060BE
:101930002946304600F0FEFA431C24D10C233360C4
:10194000304600F054FDE4E70B685B1B18D40B2B0A
:101950000FD90B60CD50CC18304600F048FD04F193
:101960000B00231D20F00700C31AD3D05A42E250C7
:10197000D0E78C424B6816BF636013600C46EBE700
:101980000C464968CCE7C41C24F00304A04205D0EF
:10199000211A304600F0CEFA0130CFD02560DBE7C7
:1019A0008C000020900000209368013B002B10B4B5
:1019B000936008DA9469A34201DB0A2903D15DF838
:1019C000044B00F00BBB1368581C106019700846DC
:1019D0005DF8044B7047F8B506460F461446D51817
:1019E000AC4201D1002007E03A4614F8011B304612
:1019F000FFF7DAFF431CF3D1F8BD00002DE9F04FEB
:101A00009DB00C4617460393064618B183690BB97F
:101A1000FFF7E6FE7B4B9C4257D17468A3891807F9
:101A20005DD52369002B5AD00023099320238DF81C
:101A3000293030238DF82A304FF0010BB846454647
:101A400015F8013B0BB1252B54D1B8EB070A0BD08D
:101A500053463A4621463046FFF7BDFF013000F0BD
:101A6000C280099B5344099398F80030002B00F082
:101A7000BA8000234FF0FF32CDE90523049307938A
:101A80008DF853301A93A846052218F8011B5E48BA
:101A9000FEF71EFD049B78BBD90644BF20228DF8BB
:101AA00053201A0744BF2B228DF853202A782A2A64
:101AB0002AD0079AA84600200A25414611F8013B82
:101AC000303B092B69D960B324E0504B9C4201D1D3
:101AD000B468A3E74E4B9C4208BFF4689EE72146DA
:101AE000304600F0DFFA00289ED04FF0FF301DB0E6
:101AF000BDE8F08FA846A2E7434A801A0BFA00F02F
:101B0000184304904546BEE7039A111D12680391DD
:101B1000002A01DB079204E0524243F002030792DD
:101B2000049398F800302E2B0ED198F801302A2B10
:101B300038D1039B1A1D1B680392002BB8BF4FF0CE
:101B4000FF3308F102080593324D98F80010032284
:101B50002846FEF7BDFC40B14023401B03FA00F0CD
:101B6000049B034308F10108049398F800102A48E5
:101B70008DF82810062208F10107FEF7A9FC0028BD
:101B800037D0264B1BBB039B073323F007030833D7
:101B90000393099B4B44099350E705FB0232012054
:101BA00088468AE7002308F10108059319460A25AB
:101BB000404610F8012B303A092A03D9002BC3D034
:101BC0000591C1E705FB012101238046F0E703AB46
:101BD00000932246124B04A93046AFF30080B0F1C7
:101BE000FF3F8146D5D1A3895B063FF57EAF0998BB
:101BF0007DE703AB00932246094B04A9304600F071
:101C000087F8ECE78C260008CC260008AC260008F4
:101C10006C260008D2260008D62600080000000026
:101C2000D71900082DE9F04791461F468A680B69CD
:101C3000DDF820809342B8BF1346C9F8003091F810
:101C4000432006460C4612B10133C9F80030236820
:101C5000990642BFD9F800300233C9F80030256830
:101C600015F0060507D104F1190AE368D9F8002038
:101C70009B1AAB4228DC94F843302268003318BF2B
:101C8000012392062DD404F1430239463046C04761
:101C9000013020D02368E568D9F8002003F006035E
:101CA000042B08BFAD1AA36822690CBF25EAE575AD
:101CB00000259342C4BF9B1AED184FF000091A3457
:101CC0004D451AD1002008E00123524639463046DE
:101CD000C047013003D14FF0FF30BDE8F087013538
:101CE000C3E7E1185A1C302081F84300224494F8DD
:101CF000451082F843100233C5E7012322463946D6
:101D00003046C0470130E6D009F10109D8E70000AC
:101D10002DE9F04301F1430C0C46097E85B06E2994
:101D20001746064698460C9A00F0B38022D86329DD
:101D300036D00AD8002900F0B980582900F08380F5
:101D400004F1420584F8421032E0642901D0692987
:101D5000F6D120681368050603F104012AD51B6833
:101D60001160002B03DA2D225B4284F843206F4878
:101D70000A2239E0732900F09D8008D86F2920D00D
:101D80007029DDD1236843F02003236003E0752927
:101D900017D07829D4D1782384F84530644855E0A9
:101DA0001368191D1B68116004F1420584F8423064
:101DB00001238CE01B68116010F0400F18BF1BB2AC
:101DC000CFE713682568181D1060280601D51B6829
:101DD00002E06806FBD51B8854486F2914BF0A220D
:101DE0000822002184F843106568A560002DC0F228
:101DF0009580216821F004012160002B3DD1002D48
:101E000040F08E806546082A0BD12368DB0708D591
:101E1000236962689A42DEBF302305F8013C05F170
:101E2000FF35ACEB05032361CDF800803B4603AAE8
:101E300021463046FFF7F6FE01304DD14FF0FF301E
:101E400005B0BDE8F083394884F84510136821686F
:101E50001D1D1B6815600A060BD5CA0744BF41F05B
:101E6000200121601BB9226822F02002226010228A
:101E7000B7E74D0648BF9BB2EFE76546B3FBF2F10B
:101E800002FB1133C35C05F8013D0B460029F5D177
:101E9000B9E7136825686169181D106028061B687A
:101EA00001D5196002E06A06FBD519800023236181
:101EB0006546B9E71368191D11601D686268002145
:101EC0002846FEF705FB08B1401B6060636823618C
:101ED000002384F84330A7E723692A463946304671
:101EE000C0470130AAD023689B0713D4E068039B46
:101EF0009842B8BF1846A3E701234A463946304600
:101F0000C04701309AD00135E368039A9B1AAB426F
:101F1000F2DCEBE7002504F11909F5E7002BACD161
:101F2000037884F8423004F142056CE7DD260008AE
:101F3000EE26000838B5064C002305460846236007
:101F400000F000FB431C02D1236803B12B6038BDB5
:101F50009C00002010B50C46B1F90E1000F096FA66
:101F60000028ABBF636DA3891B1823F48053ACBF5B
:101F70006365A38110BD2DE9F0411F468B89DB0508
:101F800005460C46164605D502230022B1F90E106F
:101F900000F0B6F9A389B4F90E1023F48053A3819D
:101FA00032463B462846BDE8F04100F069B810B51E
:101FB0000C46B1F90E1000F0A3F9431CA38915BF1C
:101FC000606523F4805343F48053A38118BFA38139
:101FD00010BDB1F90E1000F0D3B80000F8B50E46F0
:101FE0001446054618B183690BB9FFF7F9FB214B7D
:101FF0009C422AD16C68A369A360A3891A072ED5D5
:10200000236963B323692068C01A6369F6B2834207
:10201000374604DC2146284600F048F928BBA3686F
:10202000013BA36023685A1C22601E706369013063
:10203000834204D0A389DB0719D50A2E17D1214684
:10204000284600F033F990B10FE00B4B9C4201D1D0
:10205000AC68D0E7094B9C4208BFEC68CBE721464F
:10206000284600F01FF80028CCD04FF0FF37384644
:10207000F8BD00BF8C260008AC2600086C260008BE
:1020800038B5074C054608461146002222601A461C
:1020900000F066FA431C02D1236803B12B6038BDFF
:1020A0009C000020324B70B51D6806460C4625B1D9
:1020B000AB6913B92846FFF793FB2E4B9C420FD117
:1020C0006C68B4F90C309AB215072CD4D00611D430
:1020D0000922326043F04003A3814FF0FF303EE01D
:1020E000254B9C4201D1AC68EBE7244B9C4208BFD6
:1020F000EC68E6E7510712D5616B41B104F1440386
:10210000994202D0304600F073F900236363A3893B
:1021100023F02403A3810023636023692360A38940
:1021200043F00803A38123694BB9A38903F4207307
:10213000B3F5007F03D02146304600F017F9A2899D
:1021400012F001030CD00023A36063695B42A3611A
:10215000236953B9B4F90C3013F08000BAD170BDC3
:10216000920758BF6369A360F2E70020F7E700BF5A
:102170000C0000208C260008AC2600086C26000805
:1021800038B5064C002305460846236000F0B2F936
:10219000431C02D1236803B12B6038BD9C00002092
:1021A0008A892DE9F041054610070C4658D44B6842
:1021B000002B05DC0B6C002B02DC0020BDE8F0815D
:1021C000E66A002EF9D0002312F480522F68216AAB
:1021D0002B6032D0606DA3895A0705D56368C01A99
:1021E000636B0BB1236CC01A00230246E66A216AB6
:1021F0002846B047431CA38906D129681D2948D821
:10220000294ACA40D60744D500226260D90422690F
:10221000226004D5421C01D12B6803B96065616B53
:102220002F600029C9D004F14403994202D0284606
:1022300000F0DEF800206063C0E701232846B047C5
:10224000411CC8D12B68002BC5D01D2B01D0162BEB
:1022500001D12F60B1E7A38943F04003A381ADE72B
:102260000F69002FA9D093070E6808BF4B690F6054
:1022700018BF0023A6EB07088B60B8F1000F9CDDA8
:1022800043463A46216AA66A2846B047002806DC3B
:10229000A38943F04003A3814FF0FF308EE707444A
:1022A000A8EB0008E9E700BF0100402038B50B6942
:1022B00005460C46DBB118B183690BB9FFF790FAFC
:1022C0000C4B9C4209D16C68B4F90C307BB12146AF
:1022D0002846BDE83840FFF763BF074B9C4201D159
:1022E000AC68F1E7054B9C4208BFEC68ECE70020C6
:1022F00038BD00BF8C260008AC2600086C260008FC
:1023000038B5074C054608461146002222601A4699
:1023100000F008F9431C02D1236803B12B6038BDDB
:102320009C00002070B50E46B1F90E10002996B041
:1023300014461D4607DA00232B60B3891A0610D411
:102340004FF480630EE06A4600F0B2F80028F2DB3A
:10235000019A02F47042A2F500535A425A412A608F
:10236000EEE740230020236016B070BD8B8973B563
:102370009D0706460C4607D504F1470323602361F9
:102380000123636102B070BD01AB6A46FFF7CAFF6B
:10239000009905463046FFF7ADFA48B9B4F90C305C
:1023A0009A05EFD423F0030343F00203A381E3E78C
:1023B0000D4BB362A389206043F08003A381009B8F
:1023C0006361019B20615BB1B4F90E10304600F0EF
:1023D00081F828B1A38923F0030343F00103A3810B
:1023E000A3891D43A581CDE7A91700087047704751
:1023F00038B50546002945D051F8043C0C1F002B88
:10240000B8BFE418FFF7F2FF1F4A1368104633B94C
:10241000636014602846BDE83840FFF7E8BFA34278
:102420000CD921686218934204BF1A685B68636024
:1024300004BF521822600460ECE713465A680AB1E0
:10244000A242FAD919685818A0420BD12068014459
:10245000581882421960DDD1106852685A600144F0
:102460001960D7E702D90C232B60D3E72068211825
:102470008A4204BF11685268626004BF0918216073
:102480005C60C7E738BD00BF8C00002038B5074C42
:10249000054608461146002222601A4600F04AF816
:1024A000431C02D1236803B12B6038BD9C0000207F
:1024B00038B5074C0023054608461146236000F056
:1024C00021F8431C02D1236803B12B6038BD00BF43
:1024D0009C00002038B5064C0023054608462360C2
:1024E00000F018F8431C02D1236803B12B6038BDFB
:1024F0009C000020024B58221A604FF0FF307047BA
:102500009C000020024B58221A604FF0FF307047A9
:102510009C000020024B58221A600020704700BF28
:102520009C000020024B58221A604FF0FF30704789
:102530009C000020024B58221A604FF0FF30704779
:102540009C000020044A05491368002B08BF0B4675
:10255000184410601846704794000020A000002026
:10256000024B58221A604FF0FF3070479C00002049
:10257000F8B500BFF8BC08BC9E467047F8B500BF70
:08258000F8BC08BC9E46704740
:10258800000000000000000001020304060708091B
:1025980000000000010203042E2E2F4472697665A4
:1025A80072732F53544D3332463478785F48414C18
:1025B8005F4472697665722F5372632F73746D333B
:1025C80032663478785F68616C5F636F72746578BF
:1025D8002E6300002E2E2F447269766572732F5376
:1025E800544D3332463478785F48414C5F447269C1
:1025F8007665722F5372632F73746D333266347835
:10260800785F68616C5F6770696F2E630000000017
:102618002E2E2F447269766572732F53544D3332C0
:10262800463478785F48414C5F4472697665722F0A
:102638005372632F73746D3332663478785F6861D0
:102648006C5F7263632E63002E2E2F5372632F6D9F
:1026580061696E2E6300000048656C6F0000000021
:102668001000002000000000000000000000000032
:102678000000000000000000000000000000000052
:102688000000000000000000000000000000000042
:102698000000000000000000000000000000000032
:1026A8000000000000000000000000000000000022
:1026B8000000000000000000000000000000000012
:1026C80000000000232D302B2000686C4C0065664C
:1026D800674546470030313233343536373839416B
:1026E8004243444546003031323334353637383981
:0826F800616263646566000085
:0827000000DBFF7F0100000077
:04270800B50100080F
:04270C00910100082F
:1027100001000000100000000024F4001000002060
:10272000000000008C260008AC2600086C2600087B
:102730000000000000000000000000000000000099
:102740000000000000000000000000000000000089
:102750000000000000000000000000000000000079
:102760000000000000000000000000000000000069
:102770000000000000000000000000000000000059
:040000050800168554
:00000001FF
